{
  "_format": "hh-sol-artifact-1",
  "contractName": "ERC20Detailed",
  "sourceName": "contracts/libs/token/ERC20/ERC20Detailed.sol",
  "abi": [
    {
      "inputs": [
        {
          "internalType": "string",
          "name": "name",
          "type": "string"
        },
        {
          "internalType": "string",
          "name": "symbol",
          "type": "string"
        },
        {
          "internalType": "uint8",
          "name": "decimals",
          "type": "uint8"
        }
      ],
      "stateMutability": "nonpayable",
      "type": "constructor"
    },
    {
      "inputs": [],
      "name": "decimals",
      "outputs": [
        {
          "internalType": "uint8",
          "name": "",
          "type": "uint8"
        }
      ],
      "stateMutability": "view",
      "type": "function"
    },
    {
      "inputs": [],
      "name": "name",
      "outputs": [
        {
          "internalType": "string",
          "name": "",
          "type": "string"
        }
      ],
      "stateMutability": "view",
      "type": "function"
    },
    {
      "inputs": [],
      "name": "symbol",
      "outputs": [
        {
          "internalType": "string",
          "name": "",
          "type": "string"
        }
      ],
      "stateMutability": "view",
      "type": "function"
    }
  ],
  "bytecode": "0x608060405234801561001057600080fd5b50604051610714380380610714833981810160405281019061003291906101a3565b8260009080519060200190610048929190610083565b50816001908051906020019061005f929190610083565b5080600260006101000a81548160ff021916908360ff1602179055505050506103a1565b82805461008f906102b8565b90600052602060002090601f0160209004810192826100b157600085556100f8565b82601f106100ca57805160ff19168380011785556100f8565b828001600101855582156100f8579182015b828111156100f75782518255916020019190600101906100dc565b5b5090506101059190610109565b5090565b5b8082111561012257600081600090555060010161010a565b5090565b600061013961013484610247565b610222565b90508281526020810184848401111561015157600080fd5b61015c848285610285565b509392505050565b600082601f83011261017557600080fd5b8151610185848260208601610126565b91505092915050565b60008151905061019d8161038a565b92915050565b6000806000606084860312156101b857600080fd5b600084015167ffffffffffffffff8111156101d257600080fd5b6101de86828701610164565b935050602084015167ffffffffffffffff8111156101fb57600080fd5b61020786828701610164565b92505060406102188682870161018e565b9150509250925092565b600061022c61023d565b905061023882826102ea565b919050565b6000604051905090565b600067ffffffffffffffff8211156102625761026161034a565b5b61026b82610379565b9050602081019050919050565b600060ff82169050919050565b60005b838110156102a3578082015181840152602081019050610288565b838111156102b2576000848401525b50505050565b600060028204905060018216806102d057607f821691505b602082108114156102e4576102e361031b565b5b50919050565b6102f382610379565b810181811067ffffffffffffffff821117156103125761031161034a565b5b80604052505050565b7f4e487b7100000000000000000000000000000000000000000000000000000000600052602260045260246000fd5b7f4e487b7100000000000000000000000000000000000000000000000000000000600052604160045260246000fd5b6000601f19601f8301169050919050565b61039381610278565b811461039e57600080fd5b50565b610364806103b06000396000f3fe608060405234801561001057600080fd5b50600436106100415760003560e01c806306fdde0314610046578063313ce5671461006457806395d89b4114610082575b600080fd5b61004e6100a0565b60405161005b9190610223565b60405180910390f35b61006c610132565b6040516100799190610245565b60405180910390f35b61008a610149565b6040516100979190610223565b60405180910390f35b6060600080546100af906102bc565b80601f01602080910402602001604051908101604052809291908181526020018280546100db906102bc565b80156101285780601f106100fd57610100808354040283529160200191610128565b820191906000526020600020905b81548152906001019060200180831161010b57829003601f168201915b5050505050905090565b6000600260009054906101000a900460ff16905090565b606060018054610158906102bc565b80601f0160208091040260200160405190810160405280929190818152602001828054610184906102bc565b80156101d15780601f106101a6576101008083540402835291602001916101d1565b820191906000526020600020905b8154815290600101906020018083116101b457829003601f168201915b5050505050905090565b60006101e682610260565b6101f0818561026b565b9350610200818560208601610289565b6102098161031d565b840191505092915050565b61021d8161027c565b82525050565b6000602082019050818103600083015261023d81846101db565b905092915050565b600060208201905061025a6000830184610214565b92915050565b600081519050919050565b600082825260208201905092915050565b600060ff82169050919050565b60005b838110156102a757808201518184015260208101905061028c565b838111156102b6576000848401525b50505050565b600060028204905060018216806102d457607f821691505b602082108114156102e8576102e76102ee565b5b50919050565b7f4e487b7100000000000000000000000000000000000000000000000000000000600052602260045260246000fd5b6000601f19601f830116905091905056fea2646970667358221220e0737a308b5eafdff97434f6d264c6e9c8feae5a81f247fbbd1dea2e7b65bf0164736f6c63430008040033",
  "linkReferences": {},
  "deployedLinkReferences": {}
}